{
  "contractName": "AIAuth",
  "abi": [
    {
      "inputs": [],
      "stateMutability": "nonpayable",
      "type": "constructor"
    },
    {
      "inputs": [
        {
          "internalType": "uint256",
          "name": "",
          "type": "uint256"
        }
      ],
      "name": "blockchain",
      "outputs": [
        {
          "internalType": "uint256",
          "name": "index",
          "type": "uint256"
        },
        {
          "internalType": "uint256",
          "name": "timestamp",
          "type": "uint256"
        },
        {
          "internalType": "string",
          "name": "data",
          "type": "string"
        },
        {
          "internalType": "string",
          "name": "previousHash",
          "type": "string"
        },
        {
          "internalType": "string",
          "name": "hash",
          "type": "string"
        }
      ],
      "stateMutability": "view",
      "type": "function",
      "constant": true
    },
    {
      "inputs": [
        {
          "internalType": "string",
          "name": "data",
          "type": "string"
        },
        {
          "internalType": "string",
          "name": "previousHash",
          "type": "string"
        },
        {
          "internalType": "string",
          "name": "hash",
          "type": "string"
        }
      ],
      "name": "addBlock",
      "outputs": [],
      "stateMutability": "nonpayable",
      "type": "function"
    },
    {
      "inputs": [
        {
          "internalType": "uint256",
          "name": "index",
          "type": "uint256"
        }
      ],
      "name": "getBlock",
      "outputs": [
        {
          "components": [
            {
              "internalType": "uint256",
              "name": "index",
              "type": "uint256"
            },
            {
              "internalType": "uint256",
              "name": "timestamp",
              "type": "uint256"
            },
            {
              "internalType": "string",
              "name": "data",
              "type": "string"
            },
            {
              "internalType": "string",
              "name": "previousHash",
              "type": "string"
            },
            {
              "internalType": "string",
              "name": "hash",
              "type": "string"
            }
          ],
          "internalType": "struct AIAuth.Block",
          "name": "",
          "type": "tuple"
        }
      ],
      "stateMutability": "view",
      "type": "function",
      "constant": true
    },
    {
      "inputs": [
        {
          "internalType": "uint256",
          "name": "index",
          "type": "uint256"
        },
        {
          "internalType": "uint256",
          "name": "timestamp",
          "type": "uint256"
        },
        {
          "internalType": "string",
          "name": "data",
          "type": "string"
        },
        {
          "internalType": "string",
          "name": "previousHash",
          "type": "string"
        }
      ],
      "name": "calculateHash",
      "outputs": [
        {
          "internalType": "string",
          "name": "",
          "type": "string"
        }
      ],
      "stateMutability": "pure",
      "type": "function",
      "constant": true
    },
    {
      "inputs": [],
      "name": "isChainValid",
      "outputs": [
        {
          "internalType": "bool",
          "name": "",
          "type": "bool"
        }
      ],
      "stateMutability": "view",
      "type": "function",
      "constant": true
    }
  ],
  "bytecode": "0x60806040523480156200001157600080fd5b5060006040518060a00160405280600081526020014281526020016040518060400160405280600d81526020017f47656e6573697320426c6f636b0000000000000000000000000000000000000081525081526020016040518060400160405280600181526020017f30000000000000000000000000000000000000000000000000000000000000008152508152602001620001216000426040518060400160405280600d81526020017f47656e6573697320426c6f636b000000000000000000000000000000000000008152506040518060400160405280600181526020017f3000000000000000000000000000000000000000000000000000000000000000815250620001c660201b60201c565b8152509080600181540180825580915050600190039060005260206000209060050201600090919091909150600082015181600001556020820151816001015560408201518160020190805190602001906200017f929190620001fa565b5060608201518160030190805190602001906200019e929190620001fa565b506080820151816004019080519060200190620001bd929190620001fa565b5050506200040f565b606084848484604051602001620001e19493929190620002fc565b6040516020818303038152906040529050949350505050565b8280546200020890620003a0565b90600052602060002090601f0160209004810192826200022c576000855562000278565b82601f106200024757805160ff191683800117855562000278565b8280016001018555821562000278579182015b82811115620002775782518255916020019190600101906200025a565b5b5090506200028791906200028b565b5090565b5b80821115620002a65760008160009055506001016200028c565b5090565b6000620002b7826200034a565b620002c3818562000355565b9350620002d58185602086016200036a565b80840191505092915050565b620002f6620002f08262000360565b620003d6565b82525050565b60006200030a8287620002e1565b6020820191506200031c8286620002e1565b6020820191506200032e8285620002aa565b91506200033c8284620002aa565b915081905095945050505050565b600081519050919050565b600081905092915050565b6000819050919050565b60005b838110156200038a5780820151818401526020810190506200036d565b838111156200039a576000848401525b50505050565b60006002820490506001821680620003b957607f821691505b60208210811415620003d057620003cf620003e0565b5b50919050565b6000819050919050565b7f4e487b7100000000000000000000000000000000000000000000000000000000600052602260045260246000fd5b611405806200041f6000396000f3fe608060405234801561001057600080fd5b50600436106100575760003560e01c806304c075691461005c578063bfea8ab81461008c578063c25b1eaf146100bc578063d8af642c146100f0578063fd228f391461010e575b600080fd5b61007660048036038101906100719190610dc5565b61012a565b60405161008391906110e6565b60405180910390f35b6100a660048036038101906100a19190610dee565b61039d565b6040516100b391906110a4565b60405180910390f35b6100d660048036038101906100d19190610dc5565b6103cf565b6040516100e7959493929190611108565b60405180910390f35b6100f86105ad565b6040516101059190611089565b60405180910390f35b61012860048036038101906101239190610d2e565b610b11565b005b610132610bdf565b6000805490508210610179576040517f08c379a0000000000000000000000000000000000000000000000000000000008152600401610170906110c6565b60405180910390fd5b600082815481106101b3577f4e487b7100000000000000000000000000000000000000000000000000000000600052603260045260246000fd5b90600052602060002090600502016040518060a001604052908160008201548152602001600182015481526020016002820180546101f090611295565b80601f016020809104026020016040519081016040528092919081815260200182805461021c90611295565b80156102695780601f1061023e57610100808354040283529160200191610269565b820191906000526020600020905b81548152906001019060200180831161024c57829003601f168201915b5050505050815260200160038201805461028290611295565b80601f01602080910402602001604051908101604052809291908181526020018280546102ae90611295565b80156102fb5780601f106102d0576101008083540402835291602001916102fb565b820191906000526020600020905b8154815290600101906020018083116102de57829003601f168201915b5050505050815260200160048201805461031490611295565b80601f016020809104026020016040519081016040528092919081815260200182805461034090611295565b801561038d5780601f106103625761010080835404028352916020019161038d565b820191906000526020600020905b81548152906001019060200180831161037057829003601f168201915b5050505050815250509050919050565b6060848484846040516020016103b69493929190611043565b6040516020818303038152906040529050949350505050565b600081815481106103df57600080fd5b906000526020600020906005020160009150905080600001549080600101549080600201805461040e90611295565b80601f016020809104026020016040519081016040528092919081815260200182805461043a90611295565b80156104875780601f1061045c57610100808354040283529160200191610487565b820191906000526020600020905b81548152906001019060200180831161046a57829003601f168201915b50505050509080600301805461049c90611295565b80601f01602080910402602001604051908101604052809291908181526020018280546104c890611295565b80156105155780601f106104ea57610100808354040283529160200191610515565b820191906000526020600020905b8154815290600101906020018083116104f857829003601f168201915b50505050509080600401805461052a90611295565b80601f016020809104026020016040519081016040528092919081815260200182805461055690611295565b80156105a35780601f10610578576101008083540402835291602001916105a3565b820191906000526020600020905b81548152906001019060200180831161058657829003601f168201915b5050505050905085565b600080600190505b600080549050811015610b085760008082815481106105fd577f4e487b7100000000000000000000000000000000000000000000000000000000600052603260045260246000fd5b90600052602060002090600502016040518060a0016040529081600082015481526020016001820154815260200160028201805461063a90611295565b80601f016020809104026020016040519081016040528092919081815260200182805461066690611295565b80156106b35780601f10610688576101008083540402835291602001916106b3565b820191906000526020600020905b81548152906001019060200180831161069657829003601f168201915b505050505081526020016003820180546106cc90611295565b80601f01602080910402602001604051908101604052809291908181526020018280546106f890611295565b80156107455780601f1061071a57610100808354040283529160200191610745565b820191906000526020600020905b81548152906001019060200180831161072857829003601f168201915b5050505050815260200160048201805461075e90611295565b80601f016020809104026020016040519081016040528092919081815260200182805461078a90611295565b80156107d75780601f106107ac576101008083540402835291602001916107d7565b820191906000526020600020905b8154815290600101906020018083116107ba57829003601f168201915b50505050508152505090506000806001846107f29190611209565b81548110610829577f4e487b7100000000000000000000000000000000000000000000000000000000600052603260045260246000fd5b90600052602060002090600502016040518060a0016040529081600082015481526020016001820154815260200160028201805461086690611295565b80601f016020809104026020016040519081016040528092919081815260200182805461089290611295565b80156108df5780601f106108b4576101008083540402835291602001916108df565b820191906000526020600020905b8154815290600101906020018083116108c257829003601f168201915b505050505081526020016003820180546108f890611295565b80601f016020809104026020016040519081016040528092919081815260200182805461092490611295565b80156109715780601f1061094657610100808354040283529160200191610971565b820191906000526020600020905b81548152906001019060200180831161095457829003601f168201915b5050505050815260200160048201805461098a90611295565b80601f01602080910402602001604051908101604052809291908181526020018280546109b690611295565b8015610a035780601f106109d857610100808354040283529160200191610a03565b820191906000526020600020905b8154815290600101906020018083116109e657829003601f168201915b5050505050815250509050610a2a826000015183602001518460400151856060015161039d565b604051602001610a3a919061102c565b604051602081830303815290604052805190602001208260800151604051602001610a65919061102c565b6040516020818303038152906040528051906020012014610a8c5760009350505050610b0e565b8060800151604051602001610aa1919061102c565b604051602081830303815290604052805190602001208260600151604051602001610acc919061102c565b6040516020818303038152906040528051906020012014610af35760009350505050610b0e565b50508080610b00906112c7565b9150506105b5565b50600190505b90565b60008080549050905060006040518060a0016040528083815260200142815260200186815260200185815260200184815250908060018154018082558091505060019003906000526020600020906005020160009091909190915060008201518160000155602082015181600101556040820151816002019080519060200190610b9c929190610c0e565b506060820151816003019080519060200190610bb9929190610c0e565b506080820151816004019080519060200190610bd6929190610c0e565b50505050505050565b6040518060a0016040528060008152602001600081526020016060815260200160608152602001606081525090565b828054610c1a90611295565b90600052602060002090601f016020900481019282610c3c5760008555610c83565b82601f10610c5557805160ff1916838001178555610c83565b82800160010185558215610c83579182015b82811115610c82578251825591602001919060010190610c67565b5b509050610c909190610c94565b5090565b5b80821115610cad576000816000905550600101610c95565b5090565b6000610cc4610cbf846111a1565b611170565b905082815260208101848484011115610cdc57600080fd5b610ce7848285611253565b509392505050565b600082601f830112610d0057600080fd5b8135610d10848260208601610cb1565b91505092915050565b600081359050610d28816113b8565b92915050565b600080600060608486031215610d4357600080fd5b600084013567ffffffffffffffff811115610d5d57600080fd5b610d6986828701610cef565b935050602084013567ffffffffffffffff811115610d8657600080fd5b610d9286828701610cef565b925050604084013567ffffffffffffffff811115610daf57600080fd5b610dbb86828701610cef565b9150509250925092565b600060208284031215610dd757600080fd5b6000610de584828501610d19565b91505092915050565b60008060008060808587031215610e0457600080fd5b6000610e1287828801610d19565b9450506020610e2387828801610d19565b935050604085013567ffffffffffffffff811115610e4057600080fd5b610e4c87828801610cef565b925050606085013567ffffffffffffffff811115610e6957600080fd5b610e7587828801610cef565b91505092959194509250565b610e8a8161123d565b82525050565b6000610e9b826111d1565b610ea581856111dc565b9350610eb5818560208601611262565b610ebe816113a7565b840191505092915050565b6000610ed4826111d1565b610ede81856111ed565b9350610eee818560208601611262565b610ef7816113a7565b840191505092915050565b6000610f0d826111d1565b610f1781856111fe565b9350610f27818560208601611262565b80840191505092915050565b6000610f406013836111ed565b91507f496e646578206f7574206f6620626f756e6473000000000000000000000000006000830152602082019050919050565b600060a083016000830151610f8b6000860182610ff7565b506020830151610f9e6020860182610ff7565b5060408301518482036040860152610fb68282610e90565b91505060608301518482036060860152610fd08282610e90565b91505060808301518482036080860152610fea8282610e90565b9150508091505092915050565b61100081611249565b82525050565b61100f81611249565b82525050565b61102661102182611249565b611310565b82525050565b60006110388284610f02565b915081905092915050565b600061104f8287611015565b60208201915061105f8286611015565b60208201915061106f8285610f02565b915061107b8284610f02565b915081905095945050505050565b600060208201905061109e6000830184610e81565b92915050565b600060208201905081810360008301526110be8184610ec9565b905092915050565b600060208201905081810360008301526110df81610f33565b9050919050565b600060208201905081810360008301526111008184610f73565b905092915050565b600060a08201905061111d6000830188611006565b61112a6020830187611006565b818103604083015261113c8186610ec9565b905081810360608301526111508185610ec9565b905081810360808301526111648184610ec9565b90509695505050505050565b6000604051905081810181811067ffffffffffffffff8211171561119757611196611378565b5b8060405250919050565b600067ffffffffffffffff8211156111bc576111bb611378565b5b601f19601f8301169050602081019050919050565b600081519050919050565b600082825260208201905092915050565b600082825260208201905092915050565b600081905092915050565b600061121482611249565b915061121f83611249565b9250828210156112325761123161131a565b5b828203905092915050565b60008115159050919050565b6000819050919050565b82818337600083830152505050565b60005b83811015611280578082015181840152602081019050611265565b8381111561128f576000848401525b50505050565b600060028204905060018216806112ad57607f821691505b602082108114156112c1576112c0611349565b5b50919050565b60006112d282611249565b91507fffffffffffffffffffffffffffffffffffffffffffffffffffffffffffffffff8214156113055761130461131a565b5b600182019050919050565b6000819050919050565b7f4e487b7100000000000000000000000000000000000000000000000000000000600052601160045260246000fd5b7f4e487b7100000000000000000000000000000000000000000000000000000000600052602260045260246000fd5b7f4e487b7100000000000000000000000000000000000000000000000000000000600052604160045260246000fd5b6000601f19601f8301169050919050565b6113c181611249565b81146113cc57600080fd5b5056fea26469706673582212209cdc1a1faeef9ef0369104990d9f70b142524e792c98911ba2deba285e40b43164736f6c63430008000033",
  "immutableReferences": {},
  "source": "// contracts/AIAuth.sol\r\npragma solidity ^0.8.0;\r\n\r\ncontract AIAuth {\r\n    struct Block {\r\n        uint256 index;\r\n        uint256 timestamp;\r\n        string data;\r\n        string previousHash;\r\n        string hash;\r\n    }\r\n\r\n    Block[] public blockchain;\r\n\r\n    constructor() {\r\n        // Genesis block\r\n        blockchain.push(Block(0, block.timestamp, \"Genesis Block\", \"0\", calculateHash(0, block.timestamp, \"Genesis Block\", \"0\")));\r\n    }\r\n\r\n    function addBlock(string memory data, string memory previousHash, string memory hash) public {\r\n        uint256 index = blockchain.length;\r\n        blockchain.push(Block(index, block.timestamp, data, previousHash, hash));\r\n    }\r\n\r\n    function getBlock(uint256 index) public view returns (Block memory) {\r\n        require(index < blockchain.length, \"Index out of bounds\");\r\n        return blockchain[index];\r\n    }\r\n\r\n    function calculateHash(uint256 index, uint256 timestamp, string memory data, string memory previousHash) public pure returns (string memory) {\r\n        return string(abi.encodePacked(index, timestamp, data, previousHash));\r\n    }\r\n\r\n    function isChainValid() public view returns (bool) {\r\n        for (uint256 i = 1; i < blockchain.length; i++) {\r\n            Block memory currentBlock = blockchain[i];\r\n            Block memory previousBlock = blockchain[i - 1];\r\n\r\n            if (keccak256(abi.encodePacked(currentBlock.hash)) != keccak256(abi.encodePacked(calculateHash(currentBlock.index, currentBlock.timestamp, currentBlock.data, currentBlock.previousHash)))) {\r\n                return false;\r\n            }\r\n\r\n            if (keccak256(abi.encodePacked(currentBlock.previousHash)) != keccak256(abi.encodePacked(previousBlock.hash))) {\r\n                return false;\r\n            }\r\n        }\r\n        return true;\r\n    }\r\n}\r\n",
  "sourcePath": "D:\\ATHARVA\\BlockChain Projects\\AI authenticator\\contracts\\aiauth.sol",
  "compiler": {
    "name": "solc",
    "version": "0.8.0+commit.c7dfd78e.Emscripten.clang"
  },
  "schemaVersion": "3.4.16",
  "updatedAt": "2024-05-24T06:27:51.036Z",
  "networkType": "ethereum",
  "devdoc": {
    "kind": "dev",
    "methods": {},
    "version": 1
  },
  "userdoc": {
    "kind": "user",
    "methods": {},
    "version": 1
  }
}